:103000000C943E180C9466180C9466180C94661870
:103010000C9466180C9466180C9466180C94661838
:103020000C9466180C9466180C9466180C94661828
:103030000C9466180C9466180C9466180C94661818
:103040000C9466180C9466180C940D190C945C1969
:103050000C9466180C9466180C9466180C946618F8
:103060000C9466180C9466180C9466180C946618E8
:103070000C9466180C9466180C94661811241FBEE4
:10308000CFEFD4E0DEBFCDBF84B78EBB14BE88E1E6
:103090000FB6F89480936000109260000FBE11E0AC
:1030A000A0E0B1E0E8EBF6E302C005900D92A0319C
:1030B000B107D9F721E0A0E1B1E001C01D92AD391F
:1030C000B207E1F70E946B1A0C945A1B0C9400187B
:1030D00085B78C7F982F916095BF85BF1CBC1DBCA8
:1030E0001F921F920895CF93DF939695982F88276C
:1030F0009795879523E0FC0120935700E89507B644
:1031000000FCFDCF20E030E0C1E0DB01A20FB31FE7
:10311000DC91F901E80FF91F11964C9150E0542F02
:1031200044274D0F511D0A01C0935700E895112403
:103130002E5F3F4F2038310541F725E0FC012093F9
:103140005700E89507B600FCFDCF81E1809357005A
:10315000E895DF91CF91089584B1806684B985B1F7
:10316000806685B98091D80081608093D80082E024
:103170008093E2008CE08093E30087E38093E40097
:103180001092DA0080EB8093DB0087EC8093E500FF
:103190001092DF001092DE0080E0982F9295907FD1
:1031A0009093ED009091EF001092EF009091EE005F
:1031B0001092EE008F5F863081F71092940183E0C9
:1031C00080939B0180E070E968EF5FE348EB39E9A9
:1031D0002DEF9FEFE82FE295E07FE093ED00109256
:1031E000EE007093EF006093F0005093F100409375
:1031F000F2003093F3002093F4009093F500909345
:10320000F6009093F7008F5F833021F78FE3809370
:10321000DE0082E08093D80008951F920F920FB6CF
:103220000F9211242F933F934F938F939F938091ED
:10323000EC00807F803F91F13091ED008091EC00B7
:10324000807F8093ED002091EC0022952F7080917B
:10325000EE0086FF0EC08091EE001092EE0080918D
:10326000EF001092EF0080919B018F5F80939B0194
:1032700005C0809194018F5F809394014091DE009E
:1032800081E090E0022E01C0880F0A94EAF7809551
:1032900084238093DE003093ED0004C08091DA0037
:1032A0008093DA009F918F914F913F912F910F90D2
:1032B0000FBE0F901F9018951F920F920FB60F928E
:1032C00011240F900FBE0F901F90189580919401BC
:1032D000811102C08FE308951092ED008091EE00FD
:1032E00085FD10C080E18093ED008091EE0085FDAA
:1032F0000BC080E28093ED008091EE0085FFEACF65
:1033000042E003C040E001C041E08091EE00109235
:10331000EE009091EF009F7090939C018091FA00D5
:103320009430D0F08F3FC1F48091FA002091FA00E0
:1033300020939A012091FA00209395019450909344
:103340009C0126E931E0F9015E2F521B591728F440
:103350005091FA005193F8CF8FE32FB7F8949091E2
:1033600094019150909394012FBF9091DE0021E041
:1033700030E0042E01C0220F0A94EAF7922B9093BA
:10338000DE0090E99093EF00089530E340E420E5FB
:1033900090919B019923E1F33093ED009091EF0020
:1033A000907C71F04093ED009091EF00907C51F093
:1033B0002093ED009091EF00907C51F735E003C031
:1033C00033E001C034E09091EE001092EE0090EFF7
:1033D0009093F0009FE39093F10098EB9093F200AC
:1033E00099E99093F3009FEF9093FA008093FA008D
:1033F00080919A018093FA00809195018093FA0060
:1034000086E991E0FC012E2F281B261720F421913C
:103410002093FA00F8CF2091DF00385081E090E04F
:10342000032E01C0880F0A94EAF7282B2093DF00AF
:103430009FB7F89480919B01815080939B019FBF1F
:103440006C5F60656093EF00089581E493E0909372
:10345000CE008093CD00E8ECF0E088E080838081AE
:103460008560808381E090E008959091C90094FD8B
:10347000FCCF8093D20081E090E00895EF92FF921C
:103480001F93CF93DF931F92CDB7DEB77C01162F2A
:10349000180F1E1561F0F70181917F0169830E9469
:1034A000351A698197FFF5CF8FEF9FEF02C0862F06
:1034B00090E00F90DF91CF911F91FF90EF900895D2
:1034C000FC0101900020E9F7BF0161507109681B00
:1034D000790B0C943E1A579A5F9A95B79C7F85B7E3
:1034E0008C7F9160826095BF85BF0E94AC188CE78D
:1034F00091EE90938500809384001092800085E087
:103500008093810081E086BB0E94251A80E091E0D3
:103510000E94601A7894CFEF00E0D0E6FD2E0E9462
:1035200066198F3341F4B09B03C05F980E946818FE
:103530001C2FC12FF4CF10928100982F907CC1F7DF
:103540008F7391E09C0F10919A01191739F09093A5
:103550009A0160E0806C0E94C519EACF9BB1905837
:103560009BB9823031F178F4813009F09DC082E05E
:10357000809396018093970110929801F09299019F
:1035800064E081E494C08330B1F1843009F08CC0F0
:1035900060E084E40E94C5193FEF80E792E031507B
:1035A00080409040E1F700C000005F980E946818DA
:1035B000C0CF909196012091970130919C013430B9
:1035C00009F072C030919801303208F06DC030E0DF
:1035D000392B2036310508F067C0309393012093D2
:1035E0009201809199018093910164E082E40E94AC
:1035F000C51901E09ECF90919C01943011F000E03C
:1036000053C0209191012032D0F70023C1F3909153
:10361000950197FF06C09F779093950190931001B5
:1036200001E090919501309110019313E8CF3FEFA5
:10363000390F3093100134E0239FF0011124EF5E25
:10364000FE4F4091960150919701609198017091C1
:10365000990140835183628373832F5F209391018B
:10366000911167CF2032E9F4C0919201D09193017A
:10367000D0939601C0939701C036D10520F092E017
:1036800090939C0111C061E171E0CE010E9473181A
:10369000109291012196D0939301C093920162E020
:1036A00001C060E083E403C060919C0180680E94D7
:0836B000C5193FCFF894FFCFCC
:1036B8000D0A53746172744F664D61696E0D0A008C
:0400000300003000C9
:00000001FF
