:103000000C943E180C945B180C945B180C945B1891
:103010000C945B180C945B180C945B180C945B1864
:103020000C945B180C945B180C945B180C945B1854
:103030000C945B180C945B180C945B180C945B1844
:103040000C945B180C945B180C9402190C94631983
:103050000C945B180C945B180C945B180C945B1824
:103060000C945B180C945B180C945B180C945B1814
:103070000C945B180C945B180C945B1811241FBE05
:10308000CFEFD4E0DEBFCDBF84B78EBB14BE88E1E6
:103090000FB6F89480936000109260000FBE11E0AC
:1030A000A0E0B1E001C01D92AD38B107E1F70E9488
:1030B0002C1A0C94151B0C94001885B78C7F982F34
:1030C000916095BF85BF1CBC1DBC1F921F920895C7
:1030D000CF93DF939695982F88279795879523E030
:1030E000FC0120935700E89507B600FCFDCF20E0D7
:1030F00030E0C1E0DB01A20FB31FDC91F901E80F62
:10310000F91F11964C9150E0542F44274D0F511D3B
:103110000A01C0935700E89511242E5F3F4F2038D5
:10312000310541F725E0FC0120935700E89507B6EB
:1031300000FCFDCF81E180935700E895DF91CF91AE
:10314000089584B1806684B985B1806685B980911F
:10315000D80081608093D80082E08093E2008CE008
:103160008093E30087E38093E4001092DA0080EB21
:103170008093DB0087EC8093E5001092DF001092D3
:10318000DE0080E0982F9295907F9093ED009091D3
:10319000EF001092EF009091EE001092EE008F5F22
:1031A000863081F71092840183E080938B0180E068
:1031B00070E968EF5FE348EB39E92DEF9FEFE82F07
:1031C000E295E07FE093ED001092EE007093EF0047
:1031D0006093F0005093F1004093F2003093F300BD
:1031E0002093F4009093F5009093F6009093F700ED
:1031F0008F5F833021F78FEF8093DE0082E0809332
:10320000D80008951F920F920FB60F9211242F939A
:103210003F934F938F939F938091EC00807F803FEB
:1032200009F443C03091ED008091EC00807F8093E1
:10323000ED002091EC0022952F708091EE0086FF2A
:103240000EC08091EE001092EE008091EF0010927F
:10325000EF0080918B018F5F80938B0105C080917F
:1032600084018F5F80938401233070F44091DE00ED
:1032700081E090E0022E01C0880F0A94EAF7809561
:1032800084238093DE000EC04091DF00235081E054
:1032900090E0022E01C0880F0A94EAF780958423FB
:1032A0008093DF003093ED0004C08091DA008093BA
:1032B000DA009F918F914F913F912F910F900FBE08
:1032C0000F901F9018951F920F920FB60F92112416
:1032D0000F900FBE0F901F9018958091840181115F
:1032E00002C08FE308951092ED008091EE0085FDFD
:1032F00010C080E18093ED008091EE0085FD0BC051
:1033000080E28093ED008091EE0085FFEACF42E0FD
:1033100003C040E001C041E08091EE001092EE0059
:103320009091EF009F7090938C018091FA009430FF
:10333000D0F08F3FC1F48091FA002091FA002093E1
:103340008A012091FA0020938501945090938C017A
:1033500026E831E0F9015E2F521B591728F45091ED
:10336000FA005193F8CF8FE32FB7F894909184012E
:103370009150909384012FBF9091DE0021E030E0C6
:10338000042E01C0220F0A94EAF7922B9093DE00DC
:1033900090E89093EF00089530E340E420E59091A9
:1033A0008B019923E1F33093ED009091EF00907C35
:1033B00071F04093ED009091EF00907C51F02093DC
:1033C000ED009091EF00907C51F735E003C033E0C1
:1033D00001C034E09091EE001092EE0090EF9093D7
:1033E000F0009FE39093F10098EB9093F20099E93D
:1033F0009093F3009FEF9093FA008093FA008091EE
:103400008A018093FA00809185018093FA0086E812
:1034100091E0FC012E2F281B261720F421912093E8
:10342000FA00F8CF2091DF00385081E090E0032EC1
:1034300001C0880F0A94EAF7282B2093DF009FB77A
:10344000F89480918B01815080938B019FBF6C5FBA
:1034500060656093EF000895579A5F9A95B79C7FD7
:1034600085B78C7F9160826095BF85BF0E94A1184F
:103470008CE791EE909385008093840010928000F9
:1034800085E08093810081E086BB7894CFEF00E0F7
:10349000D0E6FD2E0E946D198F3341F4B09B03C01E
:1034A0005F980E945D181C2FC12FF4CF10928100ED
:1034B000982F907CC1F78F7391E09C0F10918A0137
:1034C000191739F090938A0160E0806C0E94CC1942
:1034D000EACF9BB190589BB9823031F178F48130BA
:1034E00009F09DC082E0809386018093870110924D
:1034F0008801F092890164E081E494C08330B1F1E5
:10350000843009F08CC060E084E40E94CC193FEF65
:1035100080E792E0315080409040E1F700C0000029
:103520005F980E945D18C0CF90918601209187011D
:1035300030918C01343009F072C030918801303202
:1035400008F06DC030E0392B2036310508F067C037
:1035500030938301209382018091890180938101BE
:1035600064E082E40E94CC1901E09ECF90918C012E
:10357000943011F000E053C0209181012032D0F747
:103580000023C1F39091850197FF06C09F77909328
:1035900085019093000101E0909185013091000137
:1035A0009313E8CF3FEF390F3093000134E0239FAE
:1035B000F0011124EF5FFE4F409186015091870189
:1035C0006091880170918901408351836283738384
:1035D0002F5F20938101911167CF2032E9F4C091D0
:1035E0008201D0918301D0938601C0938701C036B8
:1035F000D10520F092E090938C0111C061E071E060
:10360000CE010E946818109281012196D093830107
:10361000C093820162E001C060E083E403C0609176
:0E3620008C0180680E94CC193FCFF894FFCF38
:0400000300003000C9
:00000001FF
