:10E000000C943E700C945B700C945B700C945B7081
:10E010000C945B700C945B700C945B700C945B7054
:10E020000C945B700C945B700C945B700C945B7044
:10E030000C945B700C945B700C945B700C945B7034
:10E040000C945B700C945B700C94F5700C945A718A
:10E050000C945B700C945B700C945B700C945B7014
:10E060000C945B700C945B700C945B700C945B7004
:10E070000C945B700C945B700C945B7011241FBE4D
:10E08000CFEFD0E1DEBFCDBF84B78EBB14BE88E139
:10E090000FB6F89480936000109260000FBE12E0FB
:10E0A000A0E0B1E001C01D92AD30B107E1F70E94E0
:10E0B0000F720C94FB720C94007085B78C7F982FB4
:10E0C000916095BF85BF1CBC1DBC1F921F92089517
:10E0D000CF93DF93382F20E083E0F901809357003E
:10E0E000E89507B600FCFDCF80E090E0C1E0DB01E1
:10E0F000A80FB91FDC91FC01E20FF31F11965C9190
:10E1000040E0DA01AD0FB11D0D01C0935700E89555
:10E11000112402968115F1E09F0749F785E0F90186
:10E1200080935700E89507B600FCFDCF81E180930E
:10E130005700E895DF91CF9108958091D8008160D4
:10E140008093D8008EE08093E2008CE08093E3001F
:10E1500087E38093E4001092DA0080EB8093DB0089
:10E1600087EC8093E5001092DF001092DE0080E0E3
:10E17000982F9295907F9093ED009091EF001092E0
:10E18000EF009091EE001092EE008F5F8F3081F7DC
:10E190001092040287E080930B0280E040E820EEBA
:10E1A0009FEF35E0582F5295507F5093ED0010921D
:10E1B000EE004093EF001092F0001092F1002093D7
:10E1C000F2009093F3003093F4001092F500209346
:10E1D000F6009093F7008F5F883021F78FEF8093E0
:10E1E000DE0082E08093D80008951F920F920FB650
:10E1F0000F9211242F933F934F935F938F939F938D
:10E200008091EC00807F803F09F445C04091ED0093
:10E210008091EC00807F8093ED002091EC002295AE
:10E220002F708091EE0086FF0EC08091EE0010925C
:10E23000EE008091EF001092EF0080910B028F5F53
:10E2400080930B0205C0809104028F5F80930402CB
:10E25000283070F43091DE0081E090E0022E01C0A1
:10E26000880F0A94EAF7809583238093DE0010C01C
:10E270005091DF0030E02850310981E090E0022E1B
:10E2800001C0880F0A94EAF7809585238093DF0008
:10E290004093ED0004C08091DA008093DA009F91F2
:10E2A0008F915F914F913F912F910F900FBE0F90E3
:10E2B0001F9018951F920F920FB60F9211240F9076
:10E2C0000FBE0F901F90189580910402811102C01B
:10E2D0008FE3089590E0892F8295807F8093ED00F1
:10E2E0008091EE0085FF41C08091EE001092EE001B
:10E2F0002091EF002F7020930C028091FA002430BF
:10E30000E0F08F3FD1F48091FA003091FA00309321
:10E310000A023091FA0030930502422F4450409394
:10E320000C0226E032E0F90103C05091FA0051934B
:10E330005E2F521B5417C8F301C08FE33FB7F89408
:10E34000209104022150209304023FBF4091DE003F
:10E3500021E030E001C0220F9A95EAF7422B40936A
:10E36000DE0090E89093EF0008959F5F983009F0E9
:10E37000B2CFAECF90910B029923E1F328E0922F18
:10E380009295907F9093ED009091EF00907C09F032
:10E3900041C09091EE001092EE001092F0001092A9
:10E3A000F10090EC9093F2009FEF9093F300909324
:10E3B000FA008093FA0080910A028093FA0080911B
:10E3C00005028093FA00E6E0F2E09E2F03C08191FF
:10E3D0008093FA008E2F891B8617C8F34091DF00C7
:10E3E00030E02850310981E090E0022E01C0880F12
:10E3F0000A94EAF7482B4093DF009FB7F894809186
:10E400000B02815080930B029FBF6C5F606460932E
:10E41000EF0008952F5F2F3009F0B1CFABCF279ACF
:10E420002F9AC1E0C5BF82E085BF0E949D708CE736
:10E4300091EE90938500809384001092800085E097
:10E4400080938100C6BB7894CFEFE12C83E0D82E77
:10E4500090EEC92E07C0B09B03C02F980E945D703C
:10E46000FC2ECF2D0E9464718F33A9F3109281008E
:10E47000982F907CA9F78F739C2F9F5FF0900A02D2
:10E48000F91639F090930A0260E0806C0E94BA712C
:10E49000E7CF95B1905895B98230B9F020F481302A
:10E4A00009F0A3C006C08330A9F1843009F09DC0F3
:10E4B0008BC082E080930602D0920702109208027D
:10E4C000C092090264E081E493C020910602909119
:10E4D000070230910C02343009F087C030910802F5
:10E4E000303408F082C0122F00E09801292B203E22
:10E4F000310508F07AC0309301012093000180912A
:10E5000009028093020164E082E40E94BA71EE2461
:10E51000E394A7CF90910C02943011F0E12C65C0E8
:10E52000209102012034D0F7EE20C1F39091050232
:10E5300097FF07C09F779093050290930301EE2405
:10E54000E39490910502309103019313E7CF392FA3
:10E5500031503093030134E0239FF0011124EC5F2C
:10E56000FE4F40910602509107026091080270919F
:10E57000090240835183628373832F5F20930201DA
:10E5800091116FCF2034E9F4C0910001D0910101C5
:10E59000D0930602C0930702C03ED10520F092E05E
:10E5A00090930C0222C064E071E0CE010E9468707A
:10E5B000109202012196D0930101C093000162E004
:10E5C00001C060E083E414C060E084E40E94BA719A
:10E5D0003FEF80E792E0315080409040E1F700C08B
:10E5E00000002F980E945D703CCF60910C02806803
:0AE5F0000E94BA7136CFF894FFCFF5
:040000030000E00019
:00000001FF
