:10E000000C943E700C945B700C945B700C945B7081
:10E010000C945B700C945B700C945B700C945B7054
:10E020000C945B700C945B700C945B700C945B7044
:10E030000C945B700C945B700C945B700C945B7034
:10E040000C945B700C945B700C94FD700C9462717A
:10E050000C945B700C945B700C945B700C945B7014
:10E060000C945B700C945B700C945B700C945B7004
:10E070000C945B700C945B700C945B7011241FBE4D
:10E08000CFEFD0E1DEBFCDBF84B78EBB14BE88E139
:10E090000FB6F89480936000109260000FBE12E0FB
:10E0A000A0E0B1E001C01D92AD30B107E1F70E94E0
:10E0B0002E720C941F730C94007085B78C7F982F70
:10E0C000916095BF85BF1CBC1DBC1F921F92089517
:10E0D000CF93DF93382F20E083E0F901809357003E
:10E0E000E89507B600FCFDCF80E090E0C1E0DB01E1
:10E0F000A80FB91FDC91FC01E20FF31F11965C9190
:10E1000040E0DA01AD0FB11D0D01C0935700E89555
:10E11000112402968115F1E09F0749F785E0F90186
:10E1200080935700E89507B600FCFDCF81E180930E
:10E130005700E895DF91CF91089584B1806684B946
:10E1400085B1806685B98091D80081608093D800C0
:10E1500082E08093E2008CE08093E30087E3809389
:10E16000E4001092DA0080EB8093DB0087EC809370
:10E17000E5001092DF001092DE0080E0982F92956B
:10E18000907F9093ED009091EF001092EF009091AE
:10E19000EE001092EE008F5F863081F7109204023D
:10E1A00083E080930B0280E060E958EF3FE328EBC7
:10E1B00099E94DEF782F7295707F7093ED00109272
:10E1C000EE006093EF005093F0003093F100209345
:10E1D000F2009093F3004093F4003093F500209305
:10E1E000F6009093F7008F5F833021F78FEF8093D5
:10E1F000DE0082E08093D80008951F920F920FB640
:10E200000F9211242F933F934F935F938F939F937C
:10E210008091EC00807F803F09F445C04091ED0083
:10E220008091EC00807F8093ED002091EC0022959E
:10E230002F708091EE0086FF0EC08091EE0010924C
:10E24000EE008091EF001092EF0080910B028F5F43
:10E2500080930B0205C0809104028F5F80930402BB
:10E26000233070F43091DE0081E090E0022E01C096
:10E27000880F0A94EAF7809583238093DE0010C00C
:10E280005091DF0030E02350310981E090E0022E10
:10E2900001C0880F0A94EAF7809585238093DF00F8
:10E2A0004093ED0004C08091DA008093DA009F91E2
:10E2B0008F915F914F913F912F910F900FBE0F90D3
:10E2C0001F9018951F920F920FB60F9211240F9066
:10E2D0000FBE0F901F90189580910402811102C00B
:10E2E0008FE308951092ED008091EE0085FD10C03F
:10E2F00080E18093ED008091EE0085FD0BC080E20F
:10E300008093ED008091EE0085FFEACF42E003C0EC
:10E3100040E001C041E08091EE001092EE0090914B
:10E32000EF009F7090930C028091FA009430D8F027
:10E330008F3FC9F48091FA002091FA0020930A02DD
:10E340002091FA0020930502945090930C0226E04D
:10E3500032E0F90103C05091FA0051935E2F521B35
:10E360005917C8F301C08FE32FB7F89490910402B6
:10E370009150909304022FBF9091DE0021E030E095
:10E38000042E01C0220F0A94EAF7922B9093DE002C
:10E3900090E89093EF00089530E340E420E59091F9
:10E3A0000B029923E1F33093ED009091EF00907C04
:10E3B00071F04093ED009091EF00907C51F020932C
:10E3C000ED009091EF00907C51F725E003C023E031
:10E3D00001C024E09091EE001092EE0090EF909337
:10E3E000F0009FE39093F10098EB9093F20099E98D
:10E3F0009093F3009FEF9093FA008093FA0080913E
:10E400000A028093FA00809105028093FA00E6E008
:10E41000F2E09E2F03C081918093FA008E2F891B1A
:10E420008617C8F34091DF0030E02850310981E0C1
:10E4300090E0022E01C0880F0A94EAF7482B40931F
:10E44000DF009FB7F89480910B02815080930B02FC
:10E450009FBF6C5F60656093EF000895579A5F9A65
:10E4600095B79C7F85B78C7F9160826095BF85BF93
:10E470000E949D708CE791EE9093850080938400BC
:10E480001092800085E08093810081E086BB7894C3
:10E49000CFEFE12C83E0D82E90EEC92E07C0B09BC1
:10E4A00003C05F980E945D70FC2ECF2D0E946C719E
:10E4B0008F33A9F310928100982F907CA9F78F7366
:10E4C0009C2F9F5FF0900A02F91639F090930A0290
:10E4D00060E0806C0E94CC71E7CF9BB190589BB9F3
:10E4E0008230B9F020F4813009F0A3C006C0833037
:10E4F000A9F1843009F09DC08BC082E080930602B0
:10E50000D092070210920802C092090264E081E4EE
:10E5100093C0209106029091070230910C02343092
:10E5200009F087C030910802303408F082C0122F01
:10E5300000E09801292B203E310508F07AC0309385
:10E54000010120930001809109028093020164E09F
:10E5500082E40E94CC71EE24E394A7CF90910C0248
:10E56000943011F0E12C65C0209102012034D0F7E5
:10E57000EE20C1F39091050297FF07C09F7790931B
:10E58000050290930301EE24E394909105023091EB
:10E5900003019313E7CF392F31503093030134E057
:10E5A000239FF0011124EC5FFE4F40910602509131
:10E5B00007026091080270910902408351836283CF
:10E5C00073832F5F2093020191116FCF2034E9F400
:10E5D000C0910001D0910101D0930602C0930702BF
:10E5E000C03ED10520F092E090930C0222C064E07E
:10E5F00071E0CE010E946870109202012196D093C2
:10E600000101C093000162E001C060E083E414C036
:10E6100060E084E40E94CC713FEF80E792E03150EB
:10E6200080409040E1F700C000005F980E945D705C
:10E630003CCF60910C0280680E94CC7136CFF89478
:02E64000FFCF0A
:040000030000E00019
:00000001FF
